:100000000C945E000C94A6030C94A6030C94A60317
:100010000C94A6030C94A6030C94A6030C94A603BC
:100020000C94A6030C94A6030C94A6030C94A603AC
:100030000C94A6030C94A6030C94A6030C94A6039C
:100040000C94A6030C94A6030C94A6030C94A6038C
:100050000C94A6030C94A6030C94A6030C94A6037C
:100060000C94A6030C94A6030C94A6030C94A6036C
:100070000C94A6030C94A6030C94A6030C94A6035C
:100080000C94A6030C94A6030C94A6030C94A6034C
:100090000C94A6030C94A6030C94A6030C94A6033C
:1000A0000C94A6030C94A6030C94A6030C94A6032C
:1000B0000C94A603010001080007500011241FBE84
:1000C000CFEFD8E0DEBFCDBFE4EBF0E040E017C0FB
:1000D000B591A59135912591059107FD0CC095919C
:1000E0008591EF01F92FE82F05900D92A217B30724
:1000F000D9F7FE0104C01D92A217B307E1F7EB3B4D
:10010000F40731F70E9499020C948600F894FFCF0F
:10011000546865206C61776E206D6F77657220681A
:100120006173206265656E2073657420746F204D65
:10013000616E75616C204D6F64652E200A0D20552F
:1001400073652074686520666F6C6C6F77696E6785
:1001500020627574746F6E7320746F206D6F766596
:100160002061726F756E643A200A0D53776974636B
:100170006820427574746F6E202D20546F67676C11
:100180006520426C616465204F6E2F4F6666200AC1
:100190000D32202D204D6F766520466F727761728B
:1001A00064200A0D34202D205475726E204C656633
:1001B00074200A0D36202D205475726E2052696706
:1001C0006874200A0D35202D205061757365204D0F
:1001D0006F76656D656E74200A0D30202D20456E9A
:1001E00064204D616E75616C204D6F6465200A0D51
:1001F00000546865206C61776E206D6F77657220A2
:100200006973206E6F206C6F6E67657220696E2057
:100210004D616E75616C204D6F6465005768617447
:100220002073657474696E6720776F756C642079CC
:100230006F75206C696B6520746F20757365207411
:100240006F6461793F200A0D4175746F447269765D
:10025000652028656E746572203129200A0D4D6174
:100260006E75616C2028656E7465722032290049B4
:100270006E76616C6964204E756D6265722C2070BB
:100280006C656173652073656C65637420616D6F67
:100290006E67207468652063686F696365732062A8
:1002A000656C6F772E200A0D4175746F4472697604
:1002B000652028656E746572203129200A0D4D6114
:1002C0006E75616C2028656E746572203229004756
:1002D0006F6F64204D6F726E696E672C20506C6575
:1002E00061736520656E74657220746865203420C2
:1002F00064696769742070617373776F72642074C6
:100300006F20616374697661746520796F757220FE
:100310006D616368696E652E0050617373776F72EB
:100320006420697320636F72726563742C20796F27
:100330007520617265206772616E74656420616307
:10034000636573732E005468617420776173206E47
:100350006F742074686520636F72726563742070B7
:10036000617373776F72642C20706C6561736520A4
:0B03700074727920616761696E2E00D5
:10037C000F931F93CF93DF938BEA8AB984ED8BB9DC
:10038C0080E284B9C4EFD5ED16ED0CEDCBB96091DC
:10039C0000017091010180910201909103010E9472
:1003AC00690389B1843B51F495B180E2892785B901
:1003BC0089B1843BE9F382E090E0B0C089B1843E1E
:1003CC0051F495B180E2892785B989B1843EE9F36E
:1003DC0081E090E0A3C089B1803F51F495B180E2F7
:1003EC00892785B989B1803FE9F383E090E096C015
:1003FC00DBB9609100017091010180910201909133
:10040C0003010E94690389B1853951F495B180E2E9
:10041C00892785B989B18539E9F385E090E07EC0FB
:10042C0089B1853C51F495B180E2892785B989B1B0
:10043C00853CE9F384E090E071C089B1813D51F4D1
:10044C0095B180E2892785B989B1813DE9F386E0D0
:10045C0090E064C01BB96091000170910101809122
:10046C000201909103010E94690389B1863951F40C
:10047C0095B180E2892785B989B18639E9F388E09D
:10048C0090E04CC089B1863C51F495B180E289274B
:10049C0085B989B1863CE9F387E090E03FC089B12A
:1004AC00823D51F495B180E2892785B989B1823DAD
:1004BC00E9F389E090E032C00BB9609100017091D2
:1004CC00010180910201909103010E94690389B19D
:1004DC008C3951F495B180E2892785B989B18C3971
:1004EC00E9F380E090E01AC089B18C3C51F495B1ED
:1004FC0080E2892785B989B18C3CE9F380E090E0F2
:10050C000DC089B1883D09F041CF95B180E28927B2
:10051C0085B989B1883DE9F380E090E0DF91CF9116
:06052C001F910F910895DC
:10053200FF920F931F93CF93DF93CDB7DEB7CC50CB
:10054200D1400FB6F894DEBF0FBECDBF87E68093D1
:10055200C40086E08093C2000E94BE0120E131E027
:1005620040E081EEF901DE011196742F0E94990399
:10057200E1ECF0E08081886080839981992389F0A1
:10058200AE014E5F5F4FE0ECF0E026EC30E08081A0
:1005920085FFFDCFD9019C93DA019D91AD019111A7
:1005A200F6CFE0ECF0E0808185FFFDCF8AE080931A
:1005B200C600E0ECF0E0808185FFFDCF8DE0809306
:1005C200C600E0ECF0E0808185FFFDCFE1ECF0E0D9
:1005D2008081877F808387B1836087B988B188B93A
:1005E2006894FF24F1F801E013E00E94BE0182301A
:1005F200910511F418B9F9CF8430910511F408B9B5
:10060200F4CF8630910511F4F8B8EFCF853091051B
:1006120011F418B8EACF892B41F721EF31E040E01D
:100622008BE2F901DE01AE51BF4F742F0E94990394
:10063200E1ECF0E0808188608083CE51DF4F9881C9
:10064200C25ED040992389F0AE014D515F4FE0EC7C
:10065200F0E026EC30E0808185FFFDCFD9019C934C
:10066200DA019D91AD019111F6CFE0ECF0E08081CD
:1006720085FFFDCF8AE08093C600E0ECF0E0808148
:1006820085FFFDCF8DE08093C600E0ECF0E0808135
:1006920085FFFDCFE1ECF0E08081877F8083609170
:1006A20004017091050180910601909107010E9459
:1006B200690380E090E0C45FDE4F0FB6F894DEBFBE
:1006C2000FBECDBFDF91CF911F910F91FF90089583
:1006D200CF93DF9300D000D0CDB7DEB769837A83A2
:1006E2008B839C8389819A81AB81BC811816190600
:1006F2001A061B06A4F489819A81AB81BC810197F9
:10070200A109B10989839A83AB83BC8389819A81C8
:10071200AB81BC81181619061A061B0664F380E029
:1007220090E00F900F900F900F90DF91CF9108956E
:10073200992777FD05C005900D920197E1F708957D
:0A07420001900D920197E1F7089570
:04074C000C94000009
:04075000881300000A
:0407540020A10700D9
:00000001FF
