:100000000C945E000C945F030C945F030C945F03EC
:100010000C945F030C945F030C945F030C945F03D8
:100020000C945F030C945F030C945F030C945F03C8
:100030000C945F030C945F030C945F030C945F03B8
:100040000C945F030C945F030C945F030C945F03A8
:100050000C945F030C945F030C945F030C945F0398
:100060000C945F030C945F030C945F030C945F0388
:100070000C945F030C945F030C945F030C945F0378
:100080000C945F030C945F030C945F030C945F0368
:100090000C945F030C945F030C945F030C945F0358
:1000A0000C945F030C945F030C945F030C945F0348
:1000B0000C945F03010001080006C20011241FBE5A
:1000C000CFEFD8E0DEBFCDBFE4EBF0E040E017C0FB
:1000D000B591A59135912591059107FD0CC095919C
:1000E0008591EF01F92FE82F05900D92A217B30724
:1000F000D9F7FE0104C01D92A217B307E1F7EB3B4D
:10010000F40731F70E943B030C948600F894FFCF6C
:10011000576861742073657474696E6720776F75B2
:100120006C6420796F75206C696B6520746F207525
:10013000736520746F6461793F200A0D4175746F97
:1001400044726976652028656E74657220312920B5
:100150000A0D4D616E75616C2028656E74657220A4
:10016000322900496E76616C6964204E756D626556
:10017000722C20706C656173652073656C656374A7
:1001800020616D6F6E67207468652063686F6963B6
:1001900065732062656C6F772E200A0D4175746F50
:1001A00044726976652028656E7465722031292055
:1001B0000A0D4D616E75616C2028656E7465722044
:1001C000322900476F6F64204D6F726E696E672C25
:1001D00020506C6561736520656E7465722074686B
:1001E0006520342064696769742070617373776F68
:1001F000726420746F20616374697661746520791C
:100200006F7572206D616368696E652E0050617351
:1002100073776F726420697320636F7272656374A1
:100220002C20796F7520617265206772616E74652C
:1002300064206163636573732E0054686174207772
:100240006173206E6F742074686520636F727265CD
:1002500063742070617373776F72642C20706C65A7
:0F0260006173652074727920616761696E2E0089
:100270000F931F93CF93DF938BEA8AB984ED8BB9E9
:1002800080E284B9C4EFD5ED16ED0CEDCBB96091E9
:1002900000017091010180910201909103010E947F
:1002A000D80289B1843B51F495B180E2892785B9A0
:1002B00089B1843BE9F382E090E0B0C089B1843E2B
:1002C00051F495B180E2892785B989B1843EE9F37B
:1002D00081E090E0A3C089B1803F51F495B180E204
:1002E000892785B989B1803FE9F383E090E096C022
:1002F000DBB9609100017091010180910201909140
:1003000003010E94D80289B1853951F495B180E288
:10031000892785B989B18539E9F385E090E07EC008
:1003200089B1853C51F495B180E2892785B989B1BD
:10033000853CE9F384E090E071C089B1813D51F4DE
:1003400095B180E2892785B989B1813DE9F386E0DD
:1003500090E064C01BB9609100017091010180912F
:100360000201909103010E94D80289B1863951F4AB
:1003700095B180E2892785B989B18639E9F388E0AA
:1003800090E04CC089B1863C51F495B180E2892758
:1003900085B989B1863CE9F387E090E03FC089B137
:1003A000823D51F495B180E2892785B989B1823DBA
:1003B000E9F389E090E032C00BB9609100017091DF
:1003C000010180910201909103010E94D80289B13C
:1003D0008C3951F495B180E2892785B989B18C397E
:1003E000E9F380E090E01AC089B18C3C51F495B1FA
:1003F00080E2892785B989B18C3CE9F380E090E0FF
:100400000DC089B1883D09F041CF95B180E28927BF
:1004100085B989B1883DE9F380E090E0DF91CF9123
:060420001F910F910895E9
:100426006F927F928F929F92AF92BF92CF92DF92FE
:10043600EF92FF920F931F93CF93DF93CDB7DEB763
:10044600C35BD1090FB6F894DEBF0FBECDBF0E94C5
:10045600080320E131E040E083E5F901DE01119671
:10046600742F0E945203E1ECF0E080818860808363
:100476009981992389F0AE014E5F5F4FE0ECF0E081
:1004860026EC30E0808185FFFDCFD9019C93DA010F
:100496009D91AD019111F6CFE0ECF0E0808185FFF2
:1004A600FDCF8AE08093C600E0ECF0E0808185FF16
:1004B600FDCF8DE08093C600E0ECF0E0808185FF03
:1004C600FDCFE1ECF0E08081877F80830F2EF3E69D
:1004D6006F2EF1E07F2EF0E08F2EF02D0F2EF1EC37
:1004E600CF2ED12CF02D00EC10E00F2EF6ECEF2ED7
:1004F600F12CF02D0F2EFDE09F2EF02D36C00E9420
:10050600080380E6F301DE01AC5ABF4F782D0E9446
:100516005203F60180818860808365969FAD65975A
:10052600992371F0E4E5F0E0EC0FFD1F3196D80158
:100536008C9185FFFCCFD7019C9391919111F7CFB8
:10054600F801808185FFFCCFEAE0D701EC93D80162
:100556008C9185FFFCCFF7019082D8018C9185FFA5
:10056600FCCFF6018081877F80830E9438015C0181
:100576000E942303C5010197029708F6C501CD54D1
:10058600DF4F0FB6F894DEBF0FBECDBFDF91CF9120
:100596001F910F91FF90EF90DF90CF90BF90AF909B
:0A05A6009F908F907F906F90089552
:1005B000CF93DF9300D000D0CDB7DEB769837A83C5
:1005C0008B839C8389819A81AB81BC811816190623
:1005D0001A061B06A4F489819A81AB81BC8101971C
:1005E000A109B10989839A83AB83BC8389819A81EC
:1005F000AB81BC81181619061A061B0664F380E04D
:1006000090E00F900F900F900F90DF91CF91089591
:10061000E1ECF0E0808188608083E0ECF0E08081B4
:1006200085FFFDCF8AE08093C600E0ECF0E080819A
:1006300085FFFDCF8DE08093C600E1ECF0E0808186
:06064000877F808308950E
:10064600E1ECF0E0908198609083E0ECF0E090813E
:1006560095FFFDCF805D8093C600E0ECF0E08081E1
:1006660085FFFDCFE1ECF0E08081877F80830895F0
:1006760087E68093C40086E08093C2000E9438011A
:100686000E94130260910401709105018091060198
:0E069600909107010E94D80280E090E0089544
:1006A400992777FD05C005900D920197E1F708950C
:0A06B40001900D920197E1F70895FF
:0406BE000C94000098
:0406C2008813000099
:0406C60020A1070068
:00000001FF
