:100000000C9460000C9414090C9414090C941409B9
:100010000C9414090C9414090C9414090C941409EC
:100020000C9414090C9414090C9414090C94CF0723
:100030000C9414090C9414090C9414090C941409CC
:100040000C9414090C9414090C9414090C941409BC
:100050000C9414090C9414090C9414090C941409AC
:100060000C9414090C9414090C9414090C9414099C
:100070000C9414090C9414090C9414090C9414098C
:100080000C9414090C9414090C9414090C9414097C
:100090000C9414090C9414090C9414090C9414096C
:1000A0000C9414090C9414090C9414090C9414095C
:1000B0000C9414090100011400122C011401168083
:1000C00011241FBECFEFD8E0DEBFCDBFE4EBF0E0E0
:1000D00040E017C0B591A59135912591059107FD97
:1000E0000CC095918591EF01F92FE82F05900D92A5
:1000F000A217B307D9F7FE0104C01D92A217B307D8
:10010000E1F7E03CF40731F70E9488080C9488007E
:04011000F894FFCF91
:1001140070657263656E74616765206F66206C61DB
:10012400776E20636F6D706C6574653A20302500BE
:1001340070657263656E74616765206F66206C61BB
:10014400776E20636F6D706C6574653A203230256C
:100154000070657263656E74616765206F66206CFC
:1001640061776E20636F6D706C6574653A2034300E
:10017400250070657263656E74616765206F662023
:100184006C61776E20636F6D706C6574653A2036B0
:1001940030250070657263656E74616765206F66F3
:1001A400206C61776E20636F6D706C6574653A20A6
:1001B4003830250070657263656E74616765206F01
:1001C40066206C61776E20636F6D706C6574653A40
:1001D4002031303025200A0D486176652061206E7B
:1001E40069636520646179203A290A0D0A546865B7
:1001F400204C61776E204D6F776572206973206E95
:100204006F206C6F6E67657220696E204175746F24
:100214006D61746963204D6F646520000A0D4C6143
:10022400776E204D6F776572206973206E6F77202B
:100234007368757474696E6720646F776E2C2068B8
:100244006176652061206E696365206461792100AF
:100254000A0D546865206C61776E206D6F77657246
:1002640020686173206265656E2073657420746F05
:10027400204D616E75616C204D6F64652E200A0DF2
:100284005573652074686520666F6C6C6F77696E52
:100294006720627574746F6E7320746F206D6F764F
:1002A400652061726F756E643A200A0D5377697424
:1002B400636820427574746F6E202D20546F6767D5
:1002C4006C6520426C616465204F6E2F4F6666201A
:1002D4000A0D32202D204D6F766520466F727761AE
:1002E4007264200A0D34202D205475726E204C65E2
:1002F4006674200A0D36202D205475726E205269C2
:10030400676874200A0D35202D20506175736520AF
:100314004D6F76656D656E74200A0D30202D204575
:100324006E64204D616E75616C204D6F6465200AAA
:100334000D00546865206C61776E206D6F7765726F
:10034400206973206E6F206C6F6E67657220696E12
:10035400204D616E75616C204D6F64650057686156
:10036400742073657474696E6720776F756C64208C
:10037400796F75206C696B6520746F207573653FA8
:10038400200A0D4175746F44726976652028656E84
:10039400746572203129200A0D4D616E75616C20DF
:1003A40028656E746572203229200A0D53687574AD
:1003B400646F776E204C61776E204D6F7765722085
:1003C40028656E74657220332900496E76616C6904
:1003D40064204E756D6265722C20706C6561736566
:1003E4002073656C65637420616D6F6E672074683B
:1003F400652063686F696365732062656C6F772E2F
:10040400200A0D4175746F44726976652028656E03
:10041400746572203129200A0D4D616E75616C205E
:1004240028656E746572203229200A0D536875742C
:10043400646F776E204C61776E204D6F7765722004
:1004440028656E74657220332900476F6F64204DF0
:100454006F726E696E672C20506C656173652065E0
:100464006E746572207468652034206469676974E9
:100474002070617373776F726420746F206163748A
:10048400697661746520796F7572206D616368693E
:100494006E652E0050617373776F726420697320E8
:1004A400636F72726563742C20796F752061726555
:1004B400206772616E746564206163636573732E73
:1004C400005468617420776173206E6F74207468BF
:1004D4006520636F72726563742070617373776FE4
:1004E40072642C20706C656173652074727920616C
:0604F4006761696E2E0035
:1004FA002F923F924F925F926F927F928F929F922A
:10050A00AF92BF92CF92DF92EF92FF920F931F9317
:10051A00CF93DF93CDB7DEB7CF57D1090FB6F89493
:10052A00DEBF0FBECDBF0E94FB042EE434E040E0E4
:10053A008AE4F901DE011196742F0E940709E1ECA1
:10054A00F0E08081886080839981992389F0AE01E7
:10055A004E5F5F4FE0ECF0E026EC30E0808185FFF3
:10056A00FDCFD9019C93DA019D91AD019111F6CF8E
:10057A00E0ECF0E0808185FFFDCF8AE08093C60041
:10058A00E0ECF0E0808185FFFDCF8DE08093C6002E
:10059A00E0ECF0E0808185FFFDCFE1ECF0E08081C6
:1005AA00877F80830F2EF1EC4F2E512CF02D00EC1B
:1005BA0010E00F2EF6ECEF2EF12CF02D0F2EFAE0B4
:1005CA002F2EF02D0F2EFDE03F2EF02D0E94FB0462
:1005DA004C010E94C80860910C0170910D01809134
:1005EA000E0190910F010E9458080E94FB045C01C1
:1005FA000E94C80860910C0170910D0180910E0152
:10060A0090910F010E9458080E94FB046C010E94FD
:10061A00C80860910C0170910D0180910E019091B2
:10062A000F010E9458080E94FB043C010E94C8085E
:10063A0060910C0170910D0180910E0190910F0152
:10064A000E9458080E94AD088A9CC0018B9C900D9C
:10065A009A9C900D11248C9D90018D9D300D9C9D2E
:10066A00300D1124269DC001279D900D369D900DB9
:10067A0011248637924009F04BC028E934E040E063
:10068A008DE2F901DE01A55BBF4F742F0E940709B5
:10069A00E1ECF0E08081886080832C969FAD2C97F6
:1006AA00992389F0AE01445B5F4FE0ECF0E026EC61
:1006BA0030E0808185FFFDCFD9019C93DA019D91BD
:1006CA00AD019111F6CFE0ECF0E0808185FFFDCF1E
:1006DA008AE08093C600E0ECF0E0808185FFFDCFE0
:1006EA008DE08093C600E0ECF0E0808185FFFDCFCD
:1006FA00E1ECF0E08081877F808360910C0170914A
:10070A000D0180910E0190910F010E94580841C07D
:10071A0085E325EC34E040E0F901DE01A55BBF4F3B
:10072A00742F0E940709D2018C9188608C932C96B1
:10073A009FAD2C97992371F0EBE4F0E0EC0FFD1FCD
:10074A003196D8018C9185FFFCCFD7019C9391916A
:10075A009111F7CFF801808185FFFCCFD7012C9248
:10076A00F801808185FFFCCFD7013C92F801808196
:10077A0085FFFCCFD2018C91877F8C9360910C010D
:10078A0070910D0180910E0190910F010E945808FD
:10079A001DCFC158DF4F0FB6F894DEBF0FBECDBFD5
:1007AA00DF91CF911F910F91FF90EF90DF90CF9043
:1007BA00BF90AF909F908F907F906F905F904F9077
:0607CA003F902F900895FE
:1007D000CF93DF93CDB7DEB7C856D1090FB6F894E3
:1007E000DEBF0FBECDBFE1ECF0E08081886080838A
:1007F0008091140190911501892B09F524E131E0D4
:1008000040E080E2F901DE011196742F0E94070991
:100810009981992389F0AE014E5F5F4FE0ECF0E0E3
:1008200026EC30E0808185FFFDCFD9019C93DA0171
:100830009D91AD019111F6CFE0ECF0E0BAC080914E
:100840001401909115014497F9F424E331E040E05C
:1008500081E2F901DE011196742F0E940709998146
:10086000992351F3AE014E5F5F4FE0ECF0E026ECD0
:1008700030E0808185FFFDCFD9019C93DA019D9105
:10088000AD019111F6CFD8CF80911401909115014F
:100890008897F9F425E531E040E081E2F901DE01D5
:1008A0001196742F0E9407099981992329F2AE01AC
:1008B0004E5F5F4FE0ECF0E026EC30E0808185FF9A
:1008C000FDCFD9019C93DA019D91AD019111F6CF35
:1008D000B3CF8091140190911501CC9701F526E7D3
:1008E00031E040E081E2F901DE011196742F0E94AF
:1008F00007099981992309F49FCFAE014E5F5F4F9D
:10090000E0ECF0E026EC30E0808185FFFDCFD901FE
:100910009C93DA019D91AD019111F6CF8DCF80911D
:100920001401909115018035910501F527E931E019
:1009300040E081E2F901DE011196742F0E9407095F
:100940009981992309F478CFAE014E5F5F4FE0ECB7
:10095000F0E026EC30E0808185FFFDCFD9019C934B
:10096000DA019D91AD019111F6CF66CF28EB31E010
:1009700040E088E6F901DE011196742F0E94070914
:100980009981992389F0AE014E5F5F4FE0ECF0E072
:1009900026EC30E0808185FFFDCFD9019C93DA0100
:1009A0009D91AD019111F6CF109215011092140195
:1009B00043CF808185FFFDCF8AE08093C600E0ECC5
:1009C000F0E0808185FFFDCF8DE08093C600E0ECF4
:1009D000F0E0808185FFFDCFE1ECF0E08081877F52
:1009E0008083C859DF4F0FB6F894DEBF0FBECDBF6E
:0609F000DF91CF91089594
:1009F6000F931F93CF93DF938BEA8AB984ED8BB95C
:100A060080E284B9C4EFD5ED16ED0CEDCBB960915B
:100A16000C0170910D0180910E0190910F010E94C1
:100A2600580889B1843B51F495B180E2892785B98C
:100A360089B1843BE9F382E090E0B0C089B1843E9D
:100A460051F495B180E2892785B989B1843EE9F3ED
:100A560081E090E0A3C089B1803F51F495B180E276
:100A6600892785B989B1803FE9F383E090E096C094
:100A7600DBB960910C0170910D0180910E0190918E
:100A86000F010E94580889B1853951F495B180E269
:100A9600892785B989B18539E9F385E090E07EC07B
:100AA60089B1853C51F495B180E2892785B989B130
:100AB600853CE9F384E090E071C089B1813D51F451
:100AC60095B180E2892785B989B1813DE9F386E050
:100AD60090E064C01BB960910C0170910D0180918A
:100AE6000E0190910F010E94580889B1863951F480
:100AF60095B180E2892785B989B18639E9F388E01D
:100B060090E04CC089B1863C51F495B180E28927CA
:100B160085B989B1863CE9F387E090E03FC089B1A9
:100B2600823D51F495B180E2892785B989B1823D2C
:100B3600E9F389E090E032C00BB960910C01709145
:100B46000D0180910E0190910F010E94580889B104
:100B56008C3951F495B180E2892785B989B18C39F0
:100B6600E9F380E090E01AC089B18C3C51F495B16C
:100B760080E2892785B989B18C3CE9F380E090E071
:100B86000DC089B1883D09F041CF95B180E2892732
:100B960085B989B1883DE9F380E090E0DF91CF9196
:060BA6001F910F9108955C
:100BAC006F927F928F929F92AF92BF92CF92DF9271
:100BBC00EF92FF920F931F93CF93DF93CDB7DEB7D6
:100BCC00CD5ED1090FB6F894DEBF0FBECDBF0E942B
:100BDC00AD0821E633E040E08DE6F901DE01119627
:100BEC00742F0E940709E1ECF0E08081886080831B
:100BFC009981992389F0AE014E5F5F4FE0ECF0E0F4
:100C0C0026EC30E0808185FFFDCFD9019C93DA0181
:100C1C009D91AD019111F6CFE0ECF0E0808185FF64
:100C2C00FDCF8AE08093C600E0ECF0E0808185FF88
:100C3C00FDCF8DE08093C600E0ECF0E0808185FF75
:100C4C00FDCFE1ECF0E08081877F80830F2EFEECFE
:100C5C006F2EF3E07F2EF0E08F2EF02D0F2EF1ECA7
:100C6C00CF2ED12CF02D00EC10E00F2EF6ECEF2E49
:100C7C00F12CF02D0F2EFDE09F2EF02D36C00E9492
:100C8C00AD0880E8F301DE01A259BF4F782D0E9418
:100C9C000709F601808188608083AF969FADAF977E
:100CAC00992371F0EEE6F0E0EC0FFD1F3196D801C0
:100CBC008C9185FFFCCFD7019C9391919111F7CF2B
:100CCC00F801808185FFFCCFEAE0D701EC93D801D5
:100CDC008C9185FFFCCFF7019082D8018C9185FF18
:100CEC00FCCFF6018081877F80830E94FB045C012E
:100CFC000E94C808C5010197039708F6C501C351A6
:100D0C00DF4F0FB6F894DEBF0FBECDBFDF91CF9192
:100D1C001F910F91FF90EF90DF90CF90BF90AF900D
:0A0D2C009F908F907F906F900895C4
:100D3600FF920F931F93CF93DF93CDB7DEB7CD50BE
:100D4600D1400FB6F894DEBF0FBECDBF24E532E02A
:100D560040E082EEF901DE011196742F0E94070928
:100D6600E1ECF0E08081886080839981992389F0A5
:100D7600AE014E5F5F4FE0ECF0E026EC30E08081A4
:100D860085FFFDCFD9019C93DA019D91AD019111AB
:100D9600F6CFE0ECF0E0808185FFFDCF8AE080931E
:100DA600C600E0ECF0E0808185FFFDCF8DE080930A
:100DB600C600E0ECF0E0808185FFFDCFE1ECF0E0DD
:100DC6008081877F808387B1836087B988B188B93E
:100DD6006894FF24F1F801E013E00E94FB048230DE
:100DE600910511F418B9F9CF8430910511F408B9B9
:100DF600F4CF8630910511F4F8B8EFCF8530910520
:100E060011F418B8EACF892B41F726E333E040E026
:100E16008BE2F901DE01AD51BF4F742F0E94070925
:100E2600E1ECF0E0808188608083CD51DF4F9881CE
:100E3600C35ED040992389F0AE014C515F4FE0EC80
:100E4600F0E026EC30E0808185FFFDCFD9019C9350
:100E5600DA019D91AD019111F6CFE0ECF0E08081D1
:100E660085FFFDCF8AE08093C600E0ECF0E080814C
:100E760085FFFDCF8DE08093C600E0ECF0E0808139
:100E860085FFFDCFE1ECF0E08081877F8083C35F43
:100E9600DE4F0FB6F894DEBF0FBECDBFDF91CF9108
:080EA6001F910F91FF900895C8
:100EAE000F931F930E94AD08E0E8F0E0808182600E
:100EBE0080838FEF90E09093890080938800EFE617
:100ECE00F0E0808182608083E1E8F0E080818560DF
:100EDE00808383E087B978940E94E00880911401A2
:100EEE0090911501449690931501809314010E94E0
:100EFE00FA080E94E0088091140190911501449621
:100F0E0090931501809314010E94ED080E94E00851
:100F1E008091140190911501449690931501809340
:100F2E0014010E94FA080E94E00880911401909129
:100F3E001501449690931501809314010E94ED08BB
:100F4E000E94E008809114019091150144969093AF
:100F5E001501809314018091100190911101A091BF
:100F6E001201B0911301AC01BD01440F551F661F54
:100F7E00771F8A019B01080F191F2A1F3B1FC901EA
:100F8E00B8010E945808F89418B81F910F9108954F
:100F9E001F920F920FB60F9211242F933F934F93E0
:100FAE005F936F937F938F939F93AF93BF93EF93C3
:100FBE00FF938091000190910101A0910201B091E7
:100FCE000301181619061A061B0664F40197A109E7
:100FDE00B1098093000190930101A0930201B09397
:100FEE0003010EC00E94E8038EE190E0A0E0B0E0A5
:100FFE008093000190930101A0930201B09303012D
:10100E00FF91EF91BF91AF919F918F917F916F91D2
:10101E005F914F913F912F910F900FBE0F901F90A8
:02102E00189513
:10103000CF93DF93CDB7DEB7E4970FB6F894DEBF5A
:101040000FBECDBF20E232E040E084E3F901DE01D3
:101050001196742F0E940709E1ECF0E0808188600E
:1010600080839981992389F0AE014E5F5F4FE0EC58
:10107000F0E026EC30E0808185FFFDCFD9019C9324
:10108000DA019D91AD019111F6CFE0ECF0E08081A5
:1010900085FFFDCFE1ECF0E08081877F8083E496DF
:1010A0000FB6F894DEBF0FBECDBFDF91CF9108958C
:1010B000CF93DF9300D000D0CDB7DEB769837A83BA
:1010C0008B839C8389819A81AB81BC811816190618
:1010D0001A061B06A4F489819A81AB81BC81019711
:1010E000A109B10989839A83AB83BC8389819A81E1
:1010F000AB81BC81181619061A061B0664F380E042
:1011000090E00F900F900F900F90DF91CF91089586
:1011100087E68093C40086E08093C2000E94FB04AF
:101120000397E1F780E88AB98BB90E947D020E949B
:10113000D6058130910519F40E945707F8CF823007
:10114000910519F40E949B06F2CF039781F71BB813
:0A1150000E94180880E090E0089566
:10115A00E1ECF0E0808188608083E0ECF0E080815F
:10116A0085FFFDCF8AE08093C600E0ECF0E0808145
:10117A0085FFFDCF8DE08093C600E1ECF0E0808131
:06118A00877F80830895B9
:10119000E1ECF0E0908198609083E0ECF0E09081E9
:1011A00095FFFDCF805D8093C600E0ECF0E080818C
:1011B00085FFFDCFE1ECF0E08081877F808308959B
:1011C00083E088B960910401709105018091060166
:0A11D000909107010E94580808954D
:1011DA0081E088B9609108017091090180910A0142
:0A11EA0090910B010E94580808952F
:1011F40082E088B9609108017091090180910A0127
:0A12040090910B010E945808089514
:10120E00992777FD05C005900D920197E1F7089596
:0A121E0001900D920197E1F7089589
:041228000C94000022
:04122C001E000000A0
:0412300080841E0098
:0412340020D61300AD
:041238008813000017
:04123C0020A10700E6
:00000001FF
