:100000000C9460000C94E8010C94E8010C94E80155
:100010000C94E8010C94E8010C94E8010C94E801BC
:100020000C94E8010C94E8010C94E8010C94E801AC
:100030000C94E8010C94E8010C94E8010C94E8019C
:100040000C94E8010C94E8010C94E8010C94E8018C
:100050000C94E8010C94E8010C94E8010C94E8017C
:100060000C94E8010C94E8010C94E8010C94E8016C
:100070000C94E8010C94E8010C94E8010C94E8015C
:100080000C94E8010C94E8010C94E8010C94E8014C
:100090000C94E8010C94E8010C94E8010C94E8013C
:1000A0000C94E8010C94E8010C94E8010C94E8012C
:1000B0000C94E801010001040003D401040106804E
:1000C00011241FBECFEFD8E0DEBFCDBFE4EBF0E0E0
:1000D00040E017C0B591A59135912591059107FD97
:1000E0000CC095918591EF01F92FE82F05900D92A5
:1000F000A217B307D9F7FE0104C01D92A217B307D8
:10010000E1F7E03CF40731F70E9465010C948800A8
:04011000F894FFCF91
:100114000F931F93CF93DF938BEA8AB984ED8BB946
:1001240080E284B9C4EFD5ED16ED0CEDCBB9609146
:1001340000017091010180910201909103010E94DC
:10014400B80189B1843B51F495B180E2892785B91E
:1001540089B1843BE9F382E090E0B0C089B1843E88
:1001640051F495B180E2892785B989B1843EE9F3D8
:1001740081E090E0A3C089B1803F51F495B180E261
:10018400892785B989B1803FE9F383E090E096C07F
:10019400DBB960910001709101018091020190919D
:1001A40003010E94B80189B1853951F495B180E207
:1001B400892785B989B18539E9F385E090E07EC066
:1001C40089B1853C51F495B180E2892785B989B11B
:1001D400853CE9F384E090E071C089B1813D51F43C
:1001E40095B180E2892785B989B1813DE9F386E03B
:1001F40090E064C01BB9609100017091010180918D
:100204000201909103010E94B80189B1863951F429
:1002140095B180E2892785B989B18639E9F388E007
:1002240090E04CC089B1863C51F495B180E28927B5
:1002340085B989B1863CE9F387E090E03FC089B194
:10024400823D51F495B180E2892785B989B1823D17
:10025400E9F389E090E032C00BB96091000170913C
:10026400010180910201909103010E94B80189B1BA
:100274008C3951F495B180E2892785B989B18C39DB
:10028400E9F380E090E01AC089B18C3C51F495B157
:1002940080E2892785B989B18C3CE9F38FE690E047
:1002A4000DC089B1883D09F041CF95B180E289271D
:1002B40085B989B1883DE9F38EED90E0DF91CF9166
:0602C4001F910F91089547
:1002CA001092C50087E68093C40086E08093C2003E
:1002DA0001EC10E0C0ECD0E00F2EF6ECEF2EF12C82
:1002EA00F02D0F2EFAE0CF2EF02D0F2EFDE0DF2E8F
:1002FA00F02D0E948A009093050180930401609179
:10030A0000017091010180910201909103010E9404
:10031A00B801F801808188608083888185FFFDCFDC
:10032A008091040190910501805DF70180838881A5
:10033A0085FFFDCFF701C082888185FFFDCFF701D8
:10034A00D082888185FFFDCFF8018081877F8083F5
:10035A006091000170910101809102019091030165
:06036A000E94B801C6CF9D
:10037000CF93DF9300D000D0CDB7DEB769837A8307
:100380008B839C8389819A81AB81BC811816190665
:100390001A061B06A4F489819A81AB81BC8101975E
:1003A000A109B10989839A83AB83BC8389819A812E
:1003B000AB81BC81181619061A061B0664F380E08F
:1003C00090E00F900F900F900F90DF91CF910895D4
:0403D0000C94000089
:0403D40050C3000012
:00000001FF
